:020000040800F2
:10000000F80A002089010008E30F0008530F0008D8
:10001000E10F0008690500080F1900080000000042
:10002000000000000000000000000000D5130008E0
:10003000F306000800000000FB100008F913000898
:1000400011190008F9100008FB130008CF1300086D
:10005000C508000839130008F50600082507000840
:1000600027070008290700082B070008B505000826
:10007000B7050008B9050008BB050008BD05000864
:10008000BF050008C1050008670400080B19000837
:100090000D1900086B0500086D0500082D07000804
:1000A000FD1300080314000801140008FF130008E2
:1000B000051400087515000877150008570F00088B
:1000C000550F00085B0F0008590F0008D1130008F6
:1000D000D313000825170008291700088117000806
:1000E000F7060008CD1300080919000800F002F80F
:1000F00000F03CF80AA090E8000C82448344AAF186
:100100000107DA4501D100F031F8AFF2090EBAE883
:100110000F0013F0010F18BFFB1A43F0010318473B
:10012000C8580000E8580000103A24BF78C878C1C9
:10013000FAD8520724BF30C830C144BF04680C60ED
:10014000704700000023002400250026103A28BF35
:1001500078C1FBD8520728BF30C148BF0B60704739
:100160001FB5AFF300801FBD10B510BD00F0BEF885
:100170001146FFF7F5FF05F039F800F0DCF8FFF75E
:10018000F3FF00F0E3F80000034800470348044988
:10019000024A044B70470000ED000008F8080020F8
:1001A000F80A0020F808002040EA010310B59B0778
:1001B0000AD1042A08D310C808C9121F9C42F8D0DB
:1001C00020BA19BA401A10BD0AB9002010BDD307D1
:1001D00001D0521C05E010F8013B11F8014B1B1B2C
:1001E00007D110F8013B11F8014B1B1B01D1921EE6
:1001F000F1D1184610BD032A40F2318010F0030CF3
:1002000000F0158011F8013BBCF1020F624498BF69
:1002100011F801CB00F8013B38BF11F8013BA2F106
:10022000040298BF00F801CB38BF00F8013B11F081
:10023000030300F02980083AC0F0098051F8043B1C
:1002400051F804CB40F8043B40F804CBF3E7121D0F
:100250005CBF51F8043B40F8043BAFF30080D20789
:1002600024BF11F8013B11F801CB48BF11F8012B55
:1002700024BF00F8013B00F801CB48BF00F8012B78
:10028000704770477047704710B5203AC0F00B8038
:10029000B1E81850203AA0E81850B1E81850A0E88A
:1002A0001850BFF4F5AF5FEA027C24BFB1E81850E4
:1002B000A0E8185044BF18C918C0BDE810405FEA54
:1002C000827C24BF51F8043B40F8043B08BF7047D0
:1002D000D20728BF31F8023B48BF11F8012B28BFD5
:1002E00020F8023B48BF00F8012B7047754600F02C
:1002F00029F8AE4605006946534620F007008546BA
:1003000018B020B5FFF742FFBDE820404FF00006CF
:100310004FF000074FF000084FF0000B21F00701ED
:10032000AC46ACE8C009ACE8C009ACE8C009ACE830
:10033000C0098D4670470446AFF300802046FFF7A2
:100340001EFF0000004870479408002003494FF04A
:100350001800ABBE70470000090000002600020034
:1003600070470029816802D041F0010101E021F0CD
:10037000010181607047000070B52A4E90B0304690
:1003800000F02AF92848009028480024012501A9F6
:1003900031C104942802CDE9054080000790202057
:1003A00008900002CDE909046946304600F084F95E
:1003B0000121304600F005F98DF830500B948DF88E
:1003C00031504FF46020CDE90D04174C8DF83C50AE
:1003D0004C3C0BA9204600F047F8052301220E21D2
:1003E000204600F065F80121204600F021F80121A7
:1003F0002046FFF7B6FF204600F094F8204600F0B4
:100400002BF80028FAD1204600F09BF8204600F097
:1004100019F80028FAD10121204600F088F810B020
:1004200070BD0000080002404C2401402000002064
:100430000029816802D041F4807101E021F48071CB
:1004400081607047014689680020490700D5012076
:100450007047C06C80B27047014689680020090768
:1004600000D501207047704730B542680E4B0C79BB
:100470001A400B6842EA04221343436082680B4B24
:100480004D791A40D1E9024342EA4502234313431E
:100490008360C26A097C22F47002491EC9B242EA32
:1004A0000151C16230BD0000FFFEF0FFFDF7F1FF1A
:1004B00070B5072609290AD9C568A1F10A0404EB19
:1004C0004404A640B543A3401D43C56007E0056949
:1004D00001EB4104A640B543A3401D4305611F2322
:1004E000072A09D2446B521E02EB820293409C43BE
:1004F00091400C43446370BD0D2A09D2046BD21F96
:1005000002EB820293409C4391400C43046370BD14
:10051000C46A0D3A02EB820293409C4391400C4323
:10052000C46270BD816841F0080181607047002994
:10053000816802D041F4A00101E021F4A0018160B2
:100540007047816841F004018160704701488088EC
:1005500070470000A003002002490871000A48719A
:1005600070470000A00300207047704770470021CB
:1005700041600160704710B5044600F0EFFC0020B8
:1005800060602060BDE8104000F0F8BC38B50D4652
:100590000446802101F04CF901280AD16946284619
:1005A00001F025FB012804D19DF80010204601F040
:1005B000A7F938BD7047704770477047704770475C
:1005C00070470029016802D041F0010101E021F0EB
:1005D00001010160704700000268002122F0010261
:1005E0000260016041608160C160304B2F49C21AD6
:1005F0008039984245D018DC2D4BA0EB030298427D
:1006000037D00ADC2B4A80182BD014282DD028286C
:1006100026D1486840F4706036E0142A2DD0282A8C
:100620001ED1486840F470002EE0B2F56C7F32D0E5
:100630000ADCB2F5627F29D0B2F5677F10D1D1F81C
:10064000040440F0F00009E0B2F5717F28D0B2F563
:10065000767F05D1D1F8040440F47020C1F8040479
:100660007047486840F00F000EE0486840F0F00026
:100670000AE0486840F4704006E0486840F47020A2
:1006800002E0486840F0706048607047D1F80404A8
:1006900040F00F00E2E7D1F8040440F47060DDE7B9
:1006A000D1F8040440F47040D8E700008000024014
:1006B00044000240F8FFFDBF70B5026847F6F073D2
:1006C0009A430E6A8B680C693343D1E905562C4373
:1006D0002343CC6933432343D1E909542B432343B8
:1006E00013430360CA6842600A6882604968C16057
:1006F00070BD7047704710B54FF40054204600F0AD
:1007000053F810B1204600F013F84FF480542046FF
:1007100000F04AF8002804D02046BDE8104000F060
:1007200007B810BD704770477047704770470000AA
:100730000149086070470000140401402DE9FC41A4
:100740000D21022000F08CFB0C21022000F088FB20
:1007500000258DF804500C264FF400588DF80560E4
:100760000127CDF800808DF80670684600F02AF861
:100770008DF804503C038DF8056000948DF80670E8
:10078000684600F01FF8204600F006F8404600F0EA
:1007900003F8BDE8FC81000002490A6802430A60D0
:1007A0007047000010040140054B01461A68002004
:1007B0005B690A400B4202D0002A00D0012070473A
:1007C0000004014010B5837920490268A3B3D1F831
:1007D00000349343C1F80034D1F8042403689A43E9
:1007E000C1F80424027904680A44D2F8003423438F
:1007F000C2F80034D1F8082403689A43C1F80824E9
:10080000D1F80C2403689A43C1F80C244279102AC9
:100810000AD101F581610A6803681A430A604A68CF
:10082000006802434A6010BD1144D1F800240068FA
:100830000243C1F8002410BDFFE700790844D0F856
:1008400000149143C0F80014F5E7000000000140D7
:100850000149C860704700000020024070B505469D
:1008600040F6FF76304600F07DF8042813D10A4C9C
:10087000206940F0020020616561206940F040007D
:100880002061304600F06EF8012804D0216941F65D
:10089000FD721140216170BD002002400849042012
:1008A000CA68D20701D001207047CA68520701D533
:1008B00002207047C968C906FBD5032070470000B5
:1008C00000200240704700000248016941F08001A9
:1008D000016170470020024004490A6822F01002BA
:1008E0000A600A6802430A60704700000020024064
:1008F000F0B505460E460F2000F034F8042816D156
:100900000B4C206940F0010020612E800F2000F088
:1009100029F841F6FE77042804D1300C68800F20B6
:1009200000F020F8012802D0216939402161F0BD92
:100930000020024004490A6802F038020A600A688E
:1009400002430A6070470000002002400348024949
:100950004160034941607047230167450020024020
:10096000AB89EFCD00B50346FFF798FF05E0FF2008
:10097000401EFDD1FFF792FF5B1E012802D1002B24
:10098000F5D101E0002B00D1052000BD10B50C46CB
:10099000002358B90123184604F0ECF818B95B1C81
:1009A000142BF8DD23E0142B22DD20E0012811D1E7
:1009B000022004F0DFF808B1022319E015231846DD
:1009C00004F0D8F818B95B1C452BF8DD0FE0452B77
:1009D0000EDD0CE002280BD14623184604F0CAF8BD
:1009E00018B95B1C752BF8DD01E0752B00DD0023C9
:1009F000581E742806D822461946184600F00EF9EB
:100A0000012010BD002010BD7FB53A228DF80420D2
:100A100005228DF805200023E0228DF806208DF8B0
:100A2000083004228DF809208DF807301A4601ADF0
:100A3000AC5C521C6340D2B2062AF9D3020A8DF88C
:100A40000C00080A8DF80D008DF80E108DF80A3094
:100A500000218DF80B2008462A5C401C1144C0B2CE
:100A6000C9B20B28F8D3C8438DF80F000024285DC5
:100A70008DF800006946064801F091F8694605487E
:100A800001F08DF8641CE4B20C2CF0D37FBD0000A3
:100A9000EC0100206001002075210020FFF7B4BFA9
:100AA00010B510B97521012008E0012802D14521B7
:100AB000152003E0022803D175214620FFF7A4FF8B
:100AC000002010BDF8B506460D46FF240BE000BF20
:100AD0009DF800003A2806D1FF2C04D19DF80000B3
:100AE000002428700DE06946304601F080F80128A6
:100AF000EED074B905E0641C0C2C02DA9DF80000FD
:100B000028556946304601F072F80128F3D0601C80
:100B1000F8BD0020F8BD00007FB500213A208DF817
:100B200004008DF805108DF806108DF808108DF86A
:100B300007108DF80910084601AD2A5C401C514091
:100B4000C0B20628F9D38DF80A10002108462A5CA5
:100B5000401C1144C0B2C9B20728F8D3C8438DF86D
:100B60000B000024285D8DF800006946054801F05F
:100B700016F86946044801F012F8641CE4B2082C27
:100B8000F0D37FBDEC010020600100207FB53A2248
:100B90008DF80420042200238DF80520A6248DF86A
:100BA00006408DF80830E0248DF809208DF80740C4
:100BB0001A4601ADAC5C521C6340D2B2062AF9D38E
:100BC000020A8DF80C00080A8DF80D008DF80E1041
:100BD0008DF80A3000218DF80B2008462A5C401C55
:100BE0001144C0B2C9B20B28F8D3C8438DF80F0026
:100BF0000024285D8DF800006946064800F0CFFF0C
:100C00006946054800F0CBFF641CE4B20C2CF0D31D
:100C10007FBD0000EC010020600100207FB5274C63
:100C20004AF2A06525804AF2606565804AF21C653B
:100C3000A5803A258DF8045003258DF8055034F829
:100C400012200023140A8DF806408DF807208DF835
:100C5000083004228DF80920002201ADAC5C521C42
:100C60006340D2B2062AF9D3020A8DF80C00080AB2
:100C70008DF80D008DF80E108DF80A3000218DF8DA
:100C80000B2008462A5C401C1144C0B2C9B20B2894
:100C9000F8D3C8438DF80F000024285D8DF80000BC
:100CA0006946074800F07BFF6946064800F077FF79
:100CB000641CE4B20C2CF0D37FBD00007200002055
:100CC000EC01002060010020002310B51A461946EF
:100CD000445C491C63400629FADB415C994201D01F
:100CE000012010BD81884BBA0021DB1D03E0445C6C
:100CF000491C2244D2B29942F9DBD243405CD2B2C1
:100D0000904201D0022010BD002010BD01783A2988
:100D100003D1B0F8070040BA70474FF6FF70704734
:100D200001783A2902D1808840BA70474FF6FF70A7
:100D3000704701783A2902D1408840BA70474FF68F
:100D4000FF70704701783A2901D140787047FF2041
:100D5000704700002DE9F8435320ADF8000010263D
:100D6000DFF8F0808DF8036003248DF802406946B7
:100D7000404600F089F84FF4D070ADF8000004252B
:100D80008DF803508DF802406946404600F07CF82B
:100D9000ADF8005018278DF803708DF802406946B1
:100DA000404600F071F80820ADF800008DF80350BF
:100DB0006946404600F068F8E801ADF800008DF89B
:100DC00003708DF802406946404600F05DF8280245
:100DD000ADF800008DF803506946404600F054F825
:100DE00040F20520ADF800001B4F8DF803608DF830
:100DF00002406946384600F047F80220ADF800008E
:100E00008DF803508DF802406946384600F03CF8F2
:100E10004FF47070ADF800008DF803608DF802405B
:100E20000E4C6946204600F02FF840F62F40ADF8F2
:100E300000008DF803506946204600F025F8ADF813
:100E4000006000208DF803006946204600F01CF881
:100E5000BDE8F88300080140000C0140001001408B
:100E600010B58A0721F003040649120F21440F230D
:100E70008C6893409C438C608B68904003438B60EC
:100E800010BD000000000140F0B5CB780022DC0668
:100E900003F00F0301D58C7823430C880F2714F03F
:100EA000FF0F4FF0010C1CD0D0F800500E880CFA48
:100EB00002F42640A64210D1960007FA06FE25EA63
:100EC0000E0E03FA06F5CE7845EA0E05282E00D15F
:100ED0004461CE78482E00D10461521C082AE5D323
:100EE00005600A88FF2A1ED94568002202F108061B
:100EF0000CFA06F40E882640A64210D1960007FA96
:100F000006FE25EA0E0E03FA06F5CE7845EA0E0532
:100F1000282E00D14461CE78482E00D10461521CA5
:100F2000082AE3D34560F0BD806880B2704702466E
:100F3000926800200A4200D0012070470246D26821
:100F400000200A4200D001207047416170470161D2
:100F500070477047704770477047704710B502215F
:100F60000022480700F056FBBDE81040002240F286
:100F70002551014800F063BC0044004010B5022137
:100F80000122480700F046FBBDE81040012240F274
:100F90002551014800F053BC0044004002494CF682
:100FA000CC400860704700000030004002494AF61B
:100FB000AA200860704700000030004001494860E6
:100FC0007047000000300040014988607047000011
:100FD00000300040014908607047000000300040C8
:100FE0007047704738B500214FF0006000F07AF884
:100FF00014208DF8000000248DF801408DF8024087
:1010000001258DF80350684600F031F81C208DF85A
:1010100000008DF801408DF802408DF803506846BD
:1010200000F025F825208DF800008DF801408DF89E
:1010300002408DF80350684600F019F826208DF81C
:1010400000008DF801408DF802408DF8035068468D
:1010500000F00DF828208DF800008DF801408DF883
:1010600002408DF80350684600F001F838BDF0B535
:101070000F23C27801784FF0E024012742B3D4F85F
:101080000C2D467802F4E062C2F5E062120AC2F169
:101090000405D3408278AE401A40324315018A07D6
:1010A000D20E954021F003010B19D3F80064FF2103
:1010B00091408E430D402E43C3F8006400784109EF
:1010C00000F01F0004EB81018740C1F80071F0BD02
:1010D00001F01F008740480904EB8000C0F88071D0
:1010E000F0BD0000024A1140014302480160704710
:1010F00080FFFF1F08ED00E070477047034A51680A
:1011000021F440410143516070470000001002404B
:10111000044A0029516901D0014300E08143516133
:101120007047000000100240044A0029D16901D034
:10113000014300E08143D16170470000001002408C
:10114000044A0029916901D0014300E08143916183
:10115000704700000010024010B500F041F84FF455
:101160008034204600F0CEF800F016F9012825D191
:10117000002000F0BDF8002000F0EAF8A01100F017
:10118000DDF8A010FFF7BAFF0220FFF7D3FB102015
:10119000FFF7A2FB4FF4E011204600F0E9F8012030
:1011A00000F0E0F8392000F083F80028FAD002209F
:1011B00000F0E8F800F094F80828FBD10121084677
:1011C000FFF7A6FF012144F21D20FFF7B9FFBDE89C
:1011D000104001210148FFF7A7BF000001000202F3
:1011E0000B48016841F0010101604168094A114062
:1011F00041600168084A11400160016821F48021C2
:1012000001604268002122F4FE0242608160704762
:10121000001002400000FFF8FFFFF6FE30B5204A44
:101220005168204B11F00C0103D0042901D008298A
:1012300001D0036011E05168022401F4701104EB45
:1012400091415468184D14F4803F02D05468A403AF
:1012500001D5694300E0594301605168134B01F027
:10126000F00109095C5C0168E1404160546804F4E4
:10127000E064240A1C5D21FA04F48460546804F4D8
:101280006054E40A1B5DD940C1605268074B02F408
:101290004042920B1B1F9A5CB1FBF2F1016130BD21
:1012A0000010024000127A0000093D00D5590008E4
:1012B000034600205909094A012901D1116804E0B7
:1012C000022901D1116A00E0516A03F01F020123D3
:1012D00093400B4200D001207047000000100240F4
:1012E0000248406800F00C00704700000010024007
:1012F000034A516821F0F00101435160704700003A
:10130000001002400B490A6822F480320A600A6821
:10131000B0F5803F22F480220A6007D0B0F5802F1C
:1013200003D1086840F4A02008607047086840F4C2
:101330008030F9E70010024070470000034A51680E
:1013400021F4E06101435160704700000010024049
:10135000034A516821F4605141EAC000506070476F
:101360000010024001490866704700000000424238
:10137000034B5A68084322F47C12104358607047AC
:1013800000100240034A516821F0030101435160FB
:10139000704700000010024030B50B4C40F2FF15C2
:1013A0003120FFF785FF20706068401C6060207866
:1013B00010B96068A842F3D13120FFF779FF002807
:1013C00000D0012030BD0000A00000207047704711
:1013D000704770477047416001600272704770B596
:1013E00004460D461646FFF7B9FD65602560267276
:1013F000BDE87040FFF7C2BD704770477047704747
:10140000704770477CB502214C07204600F0F6F883
:10141000002877D00221204600F0AEF8204600F0E8
:10142000EBF84E4D2988084481B2204600F05AF965
:10143000E869401CE861400506D119208DF80000DC
:101440006946474803F029FD464E002404EB44005A
:1014500056F820207AB106EB8000416811B1491E90
:10146000416008E04260007A8DF8000069463C481F
:10147000019403F012FD641CA4B2032CE6D3A86807
:101480004FF4C871401CA860884201DDA9600AE0E1
:10149000884208D10220019014208DF8000069468E
:1014A0002F4803F0FAFC3049086808B1401E086074
:1014B000A869B0F5F07F01DA401CA86128694FF4F3
:1014C000FA51884201DA401C28616869A0F10A02D9
:1014D0008A4201D2401C6861E9682448BD293ADC8F
:1014E000491CE960B1F150020CD4002250290AD104
:1014F000402104466A60FFF728FD10214FEA0400EE
:10150000FFF723FD7CBD512901D1402117E0184C84
:10151000BE26542907D14021FFF717FD2078002867
:10152000F0D1EE607CBDA1F15403002BFADD2478EC
:101530006B68A3420CDAC9074FF0100102D0FFF725
:1015400006FD7CBDFFF701FD6868401C68607CBD3E
:10155000C5E903627CBD1021D2E7000080000020B5
:10156000EC0000203C0100201C000020000801408D
:101570002700002070477047C94301827047002947
:10158000018802D041F0010102E040F2FE32114038
:101590000180704730B587B04FF6FF70ADF814008A
:1015A00002240020ADF81040ADF81600ADF812008E
:1015B000650704A9284600F097F83020ADF8000030
:1015C0000120ADF8020040F2FF70ADF80600ADF862
:1015D00008406946284600F025F8FF20ADF80600CF
:1015E000ADF808406946284600F04CF8012128462D
:1015F000FFF7C5FF07B030BD808E70470246138AE3
:10160000002092890B4202EA010202D0002A00D097
:1016100001207047002A828901D00A4300E08A43F2
:1016200082817047F0B5028C22F001020284058CA1
:101630008288038B0C8823F070030E8925F0020545
:101640001C434B882E43CF880C4D33438786A842DA
:1016500002D00B4DA8420DD14D8923F008031D4344
:1016600025F004068B8822F4034533438E89CA890A
:101670002E433243828004830384F0BD002C01405A
:101680000034014070B5028C22F480520284058C33
:101690008288838B25F4005523F4E0440B880F4E99
:1016A0001B0644EA13430C89240745EA14444D8879
:1016B0002D0744EA1545CC88B042A0F8404002D03E
:1016C000074CA04205D18989C2F30D04890544EA7B
:1016D000114282808383058470BD0000002C01408C
:1016E000003401408186704710B5028802F08F02F5
:1016F0000280CA884B8804881A43224302808A8861
:10170000064C012382850A88A0420285838202D08A
:10171000034A904201D1097A018610BD002C014094
:1017200000340140704700003EB5114C40F2255195
:10173000204600F07DF801280BD1204600F0DCF8AF
:101740008DF8080002A90B4800F00AFA0A490020A7
:10175000886040F22661204600F06AF8012806D130
:1017600013208DF800006946044803F096FB3EBD47
:10177000004400400808002080000020EC00002009
:10178000704730B5028A4FF2FF031A400B884D882C
:101790008C88C9882B430C4323431343038230BDF9
:1017A0000029818902D041F4005101E021F4005167
:1017B0008181704730B587B000244FF40070ADF8D8
:1017C0000800194DADF80440ADF80640ADF80A40E8
:1017D00001A92846FFF7D5FF4FF4E1300390ADF89B
:1017E00014400C20ADF81040ADF81600ADF81240D2
:1017F000ADF8184003A9284600F03AF80121284620
:10180000FFF7CEFF4FF41650084C039001A9204675
:10181000FFF7B7FF03A9204600F02AF80121204670
:10182000FFF7BEFF07B030BD003801400044004064
:101830000246128800200A4200D00120704710B5ED
:10184000C1F3421301F01F040121A140012B01D17A
:101850000C3004E0022B01D1103000E01430002ADB
:10186000026801D00A4300E08A43026010BD000014
:1018700030B50446008A85B00D464CF6FF7108402D
:10188000E98801432182A0894EF6F3110840A98816
:101890002A8911436A8902431143A181A08A4FF624
:1018A000FF410840A9890143A1826846FFF7B6FCC1
:1018B0001048844201D1039800E00298192148435E
:1018C000296864228900B0FBF1F0B0FBF2F1090154
:1018D0000B096FF018056B43322500EB830005EB15
:1018E0000010B0FBF2F000F00F000843208105B0BB
:1018F00030BD0000003801408088C0F30800704708
:10190000C1F3080181807047704770477047704786
:1019100070471CB5044603F0E7FE6946204600F018
:1019200066F8012804D16946204603F07DFE1CBDFF
:10193000A0680028FBD00020A060627B4FF44871B3
:101940002069FFF74CFD1CBD1CB5044680680028CB
:1019500009D16946204600F04AF8012803D16946BA
:10196000204603F061FE1CBD10B516231522044964
:10197000044800F032F8BDE81040024803F0B4BE5D
:10198000480100207802002030B5D0E900435A1CFD
:10199000A24207D0D51702EB157525F00F05521B93
:1019A000A24201D1002030BD0A7900EBC3031A76B0
:1019B00043680A6800EBC3035A614268497900EB47
:1019C000C20251764168491CCA1701EB127222F01B
:1019D0000F02891A4160012030BD10B50024046057
:1019E00044600273437301614C600C6010BDD0E928
:1019F0000023934201D10020704700EBC202127E07
:101A00000A71026800EBC20252690A60026800EBC8
:101A1000C202527E4A710168491CCA1701EB526228
:101A200022F07F02891A01600120704730B500243E
:101A3000914202D94FF6FF7030BD0B4604E000BF63
:101A400050F823505B1C2C449342F9DB501A401C85
:101A5000B4FBF0F030BDF0B50023491ECCB229E054
:101A6000641EE7B200241A460CE000EB820650F830
:101A700022107568A94203D940F8225014467160BB
:101A8000521CD2B2BA42F0D95B1CDFB2002321460D
:101A90000EE000EB810555F8042C50F82160B242AD
:101AA00004D940F8212045F8046C0B46491EC9B200
:101AB000B942EED2A342D3D3F0BD00007CB5F924E5
:101AC0008DF804400D4E0E2500968DF805506946A0
:101AD0000B48FFF759FF8DF8044000968DF805502C
:101AE00069460748FFF750FF8DF8044000968DF8CF
:101AF000055069460248FFF747FF7CBD803801006A
:101B00000C0300207CB5F9258DF80450094C0E26F5
:101B100000948DF8056069460748FFF735FF8DF89A
:101B2000045000948DF8056069460348FFF72CFFC8
:101B30007CBD0000803801000C0300201CB5F9209A
:101B40008DF80400044800900E208DF805006946C9
:101B50000248FFF719FF1CBD803801000C0300206C
:101B600030B5D0E900435A1CA24207D0D51702EB8A
:101B7000556525F07F05521BA24201D1002030BDE2
:101B80000A7800F10C015A544168491CCA1701EB4C
:101B9000526222F07F02891A4160012030BD70B587
:101BA00004460D46FFF7DAF929462046FFF7D8FF2D
:101BB0000446FFF7E3F9204670BD00214160016053
:101BC00081607047D0E90023934201D10020704723
:101BD00000F10C03D25C0A700168491CCA1701EBC2
:101BE000526222F07F02891A01600120704770B5AD
:101BF00004460D46FFF7B2F929462046FFF7E2FFFB
:101C00000446FFF7BBF9204670BD00002DE9FF5FD9
:101C10000446684603F0F0FB20788DF80000606809
:101C200001909DF80010DFF8F483FD48FD4E00257B
:101C3000FD4CA8F11C07042936D012DC012926D05E
:101C4000022923D12068401C20600F281EDDF748A0
:101C500003F01CF9F648029002A9F44803F0C0FC16
:101C6000D8E105292CD01829EBD103F077FCB878FE
:101C7000401CC0B2B8701A287ED22168072901DD45
:101C80000721216018F8000003F06CFEF8E1022241
:101C90004FF4FA51E7482560FFF7A1FBFFF74EFF2D
:101CA000B97818F80100EFE70121FFF750F9012199
:101CB0003046FFF74AF902213046FFF748F9DFE1E5
:101CC00001991329E2D2DFE801F0FE1A1A1A1A1A52
:101CD0001A1A1A1A1A1A1AFEFEFE1AFE0A002168A9
:101CE0000129D3DB3969082909D0D04803F0CEF89F
:101CF000D148029002A9CD4803F072FC89E101218C
:101D0000C748FFF724F9C74E01213046FFF71DF9F8
:101D100002213046FFF71BF9C84E3869019931544A
:101D2000401C38611A20B946B87003F017FCFFF761
:101D300005FF3869DFF808B302287ED13078DFF874
:101D4000DC82C04FDFF800A3A8F10808032818D1EF
:101D5000707802286DD101224FF4FA51B548256000
:101D6000FFF73DFB03F0FAFBFFF7E8FEAF4803F097
:101D70008DF8B64802A900E07BE10290AB4803F081
:101D80002FFC3078072851D17078022826D102F034
:101D900017FF0028A7484FF001024FF4F0712560AB
:101DA00008D0FFF71CFB03F0D9FBA04803F06EF846
:101DB00002970CE0FFF713FB04219948FFF7C7F8DF
:101DC00003F0CCFB994803F061F8A148029002A906
:101DD000964803F005FC3078072827D1707803284F
:101DE00059D102F0EDFE68B101224FF4F071914833
:101DF0002560FFF7F4FA03F0B1FB8C4803F046F8D6
:101E000002970FE003F0AAFB01224FF448718948C2
:101E10002560FFF7E4FA8F480560844803F036F840
:101E20008D48029002A9814803F0DAFB307803283C
:101E30002ED1707801287ED100E0ACE002F0C0FE27
:101E400088B101224FF4F0717A482560FFF7C7FA94
:101E500003F084FB754803F019F802A97348029750
:101E600003F0BEFB14E07D48C8F800006F4803F0A3
:101E70000DF802A96D48CDF808A003F0B1FB03F0FE
:101E80006DFB01224FF448716A482560FFF7A7FAFD
:101E9000307807282DD170780128CCD102F090FE3F
:101EA00090B101224FF4F07162482560FFF797FA74
:101EB00003F054FB5D4802F0E9FF02A95B4802977A
:101EC00003F08EFB15E0D3E065495848C8F80010D0
:101ED00002F0DCFF02A95548CDF808A003F080FB12
:101EE00003F03CFB01224FF4487152482560FFF794
:101EF00076FA307805287DD170780C2818D18021A9
:101F00004848FFF714F801280FD1484802F0BEFFF7
:101F100002A94648CDF808B003F062FB01224FF455
:101F2000487144482560FFF75AFA3078052861D196
:101F30007078092800E05DE018D180213948FEF76B
:101F4000F6FF01280FD1394802F0A0FF4548029062
:101F500002A9364803F044FB01224FF4487135488A
:101F60002560FFF73CFA3078052843D170780828BF
:101F700040D180212B48FEF7DAFF01283AD12B48C7
:101F800002F084FF3848029002A9284803F028FB99
:101F900003F0E4FA27E009282CD1307802286FD129
:101FA00070780A286CD1B0780B2869D1F0780528B0
:101FB00066D13079022863D17079012860D1B07977
:101FC00001285DD1F07909285AD1307A102801D042
:101FD000122855D1154802F059FF02A91348CDF82F
:101FE00008B003F0FDFA01224FF448711148256052
:101FF000FFF7F5F9D9F81000092841DD0B4802F088
:1020000045FF1A48029002A9084803F0E9FA03F0D4
:10201000A5FA256001224FF448712EE058000020F7
:10202000000C01400008014014000020A80000201E
:10203000152900083C01002041210008FC07002070
:102040000D400008813400082D3900080D280008D3
:102050006931000818000020652B0008F13A0008DB
:10206000353A0008B5450008F54100088D20000804
:1020700006E002224FF4FA5125600348FFF7AFF95A
:10208000002004B0BDE8F09F3C0100207CB5007842
:1020900025494FF44875012814D0244C022829D032
:1020A000182839D103F05AFA01212148FEF746FFDA
:1020B000204A012190B316461046FEF746FF022142
:1020C00030462DE00020086002224FF4FA511A48F1
:1020D000FFF785F903F042FAFFF730FD202003F007
:1020E00041FC1C2003F03EFCFFF7E8FC284603F00F
:1020F0002BF811E00868401C08600A280CDD0F4826
:1021000002F0C4FE69460D48009403F069FA01220A
:1021100029460948FFF763F900207CBDFFE7104618
:10212000FEF715FFEBE7000014000020152900085A
:10213000000C0140000801403C010020A8000020E4
:102140002DE9FC410178404E404D414C4FF4487719
:10215000052942D013DC3F4A01292AD0022915D093
:10216000042956D101212046FEF7F1FE012128461F
:10217000FEF7EBFE02212846FEF7E9FE49E01629AC
:102180004AD0182945D103F0E9F942E01068401C13
:1021900010600A283DDD304802F078FE69462E487E
:1021A000009603F01DFA012239462C48FFF717F973
:1021B0002FE00020106002224FF4FA512748FFF769
:1021C0000EF902F0F3FF02F05BFE10B3002003F003
:1021D00001FA234802F01CFD1BE040680D2818D2CC
:1021E000DFE800F0170707070707070707070707D4
:1021F000070001212046FEF7AAFE01212846FEF72E
:10220000A4FE02212846FEF7A2FE03F0A7F9FFF77D
:1022100095FC0020BDE8FC81FFF7A6FB01212046CC
:10222000FEF793FE04212046FEF78FFE4FF4007563
:1022300029462046FEF789FE29462046FEF777FE0E
:102240000028F5D1A7E70000152900080008014083
:10225000000C014014000020A80000203C010020D8
:10226000A00300202DE9FF4102788DF8002040688E
:1022700001900025D0B24B4C4B4E4FF4FA510C2834
:102280003ED00CDC012817D002281DD0072805D02D
:102290000B2803D102224548FFF7A1F87DE04FF457
:1022A00048770E283AD011281FD0162873D0182846
:1022B00073D103F053F970E002223C482560FFF728
:1022C0008EF835702A4624E02068401C20600A28D9
:1022D00063DB01208DF800006946354802F001FEFD
:1022E000344802F0D3FD34484BE0012239462F48F0
:1022F0002560FFF774F82F4802F0C8FD2F4840E032
:1023000002222A482560FFF76AF83078401CC2B2E2
:10231000327000210846FEF781FC3EE00C2245F6B3
:10232000C05122482560FFF75AF83078012809D8B3
:1023300003F014F9FFF702FC1E2003F013FBFFF774
:10234000FDFB2AE0022823D1A521002002F04CFC4D
:102350001B48006841061B4801D5A52100E0A021CB
:102360000173184802F054FC04211748FEF7EDFDF4
:1023700003F0F4F8012239460C482560FFF72FF8E6
:102380001248029002A90B4803F02AF905E002E086
:10239000FFF794FB01E0FFF7E7FA002004B0BDE887
:1023A000F081000014000020340000203C010020D7
:1023B000EC000020A80000201529000809320008C0
:1023C00010000020A0030020000C0140D1230008D1
:1023D0002DE9FC4100780024274D4FF4487801286E
:1023E00014D0264E02282BD018283CD103F0B6F882
:1023F00001212348FEF7A2FD224A0121B0B317466E
:102400001046FEF7A2FD0221384631E002224FF4C9
:10241000FA511D482C60FEF7E2FF03F09FF8FFF72A
:102420008DFB142003F09EFA102003F09BFA172076
:1024300003F098FAFFF766FB404602F053FE12E005
:102440002868401C28600A280DDD104802F01EFD97
:1024500069460E48009603F0C3F8012241460A4837
:102460002C60FEF7BCFF0020BDE8FC81FFE71046B2
:10247000FEF76DFDE9E700001400002015290008B3
:10248000000C0140000801403C010020A800002091
:102490002DE9FC410078354D0026354C4FF4FA57B4
:1024A0000D285CD010DC01283DD0022822D008285D
:1024B00058D1022239462F48FEF791FF2068401C70
:1024C0002060FEF729FB4DE0162829D0182849D1B5
:1024D00003F044F82E60206804281AD3264802F03E
:1024E000D5FC264800906946234803F079F801227C
:1024F000394611E02868401C28600A2832DB1E4853
:1025000002F0C4FC1E48009069461B4803F068F8BE
:1025100028E001224FF448711648FEF760FF21E0E1
:10252000FFF722FA1EE00822394612482E60FEF715
:1025300056FF04211348FEF70AFD266003F00EF84B
:10254000102003F00FFA252003F00CFA142003F0FA
:1025500009FA232003F006FAFFF7F0FA02E02068F8
:10256000001D20600020BDE8FC8100001400002058
:10257000180000203C010020A8000020652200086F
:1025800015290008000C01402DE9FC41374C00786A
:102590006168374D491C4FF4487711284DD031DC24
:1025A000344A4FF0000601283AD0022831D00F28D3
:1025B00058D13148006803283FD2166001224FF4F9
:1025C000FA412E48FEF70BFF2D48066002F0C6FFC9
:1025D000FFF798FA1F2003F0C5F9192003F0C2F99C
:1025E000384602F07FFD232003F0BCF902F052FDD3
:1025F000244802F04BFC244800906946214802F030
:10260000EFFF2FE0162808D018282BD102F0A6FFE4
:1026100028E01068401C106024E0FFF7A5F921E0D5
:10262000166002224FF4FA511448FEF7D8FE022138
:102630000020FEF7ABFA666014E06160032904DA5B
:1026400002210020FEF7A2FA0CE00E4802F01EFC68
:1026500069460C48009502F0C3FF0122394607483D
:10266000FEF7BDFE0020BDE8FC8100003400002024
:102670000932000814000020000000203C01002066
:1026800018000020A80000208D2600082DE9FF4733
:1026900001788DF8001040680190C8B24E4C0025BA
:1026A0004E4FDFF83C91DFF83CA14F4E4FF4FA510A
:1026B0000C2850D014DC4FF0010801282AD0022841
:1026C00056D12068401C20600A2851DBFFF7F6F93C
:1026D0008DF800806946454802F003FC44486DE0EF
:1026E0004FF448770E2844D011282AD018286ED1EC
:1026F00002F034FF01213F48FEF720FC3E4A00284B
:102700004FF0010160D014461046FEF71EFC022176
:1027100020465AE0022239482560FEF760FE3570F7
:1027200038682946C0B2FEF731F9C9F80000002820
:102730004DD18DF8008069462C4802F0D2FB5046FE
:102740003CE0012239462D482560FEF748FE2C4822
:1027500002F09CFBF3E7022228482560FEF73FFECB
:102760003078401CC1B231703868C0B2FEF70EF943
:102770002DE0307801280DD802F0F0FE1E2003F085
:10278000F1F8FFF7DBF90C2245F6C0511B48FEF7C4
:1027900026FE1CE002281AD1A521D9F8000002F07B
:1027A00023FA184802F034FA01223946134825600A
:1027B000FEF715FE124802F069FB1348029002A9C9
:1027C0000F4802F00DFF02E01046FEF7C0FB0020AC
:1027D00004B0BDE8F08700001400002000000020D5
:1027E000040000200932000834000020EC00002022
:1027F00015290008000C0140000801403C010020A0
:10280000A8000020A0030020993200082DE9FC4117
:102810000078384C384D00264FF448784FF4FA577A
:10282000082856D012DC012824D002285FD128685D
:10283000401C28600A285ADB304802F027FB304849
:10284000009069462D4802F0CBFE50E00D284BD099
:1028500018284CD102F082FE2E602068042818D37C
:10286000264802F013FB274800906946234802F0EF
:10287000B7FE0EE002F072FE02F0A2F978B11F4836
:1028800002F004FB2048009069461C4802F0A8FEB4
:102890002E60012241461D48FEF7A1FD27E00421DC
:1028A0001B48FEF754FB0822394618482E60FEF7F5
:1028B00096FD1F20266003F055F8252003F052F8FE
:1028C000142003F04FF8232003F04CF8FFF736F9FB
:1028D0000DE0022239460D48FEF781FD2068401CBC
:1028E0002060FEF719F902E02068001D206000203A
:1028F000BDE8FC811800002014000020A800002082
:102900001529000889250008912400083C010020B1
:10291000000C01402DE9FC4700783E4D3E4E00275B
:102920003E4C4FF47A694FF4FA5801284FD00228F0
:1029300006D018286BD102F011FEFFF7BFF863E054
:102940002068401C20600A2861DB354802F09EFAAE
:10295000344800906946324802F042FE0222414665
:1029600031482760FEF73BFD02F028FEA02805D085
:10297000A02002F029FE2D4802F04AF92C4F4021F8
:102980003846FEF7E2FA80213846FEF7DEFA7C157B
:1029900021463846FEF7D9FA01213046FEF7D5FA2E
:1029A00001212846FEF7D3FA02212846FEF7CFFA86
:1029B00004213046FEF7C9FA21463046FEF7C5FA33
:1029C00021463046FEF7B3FA0028F5D11FE0022277
:1029D000414615482760FEF702FD1648006880054D
:1029E000B3D502F0BBFD01213046FEF7A7FA012165
:1029F00020B12846FEF7A9FA0221FFE72846FEF794
:102A0000A6FA282002F0AEFF484602F09BFD002007
:102A1000BDE8FC8700080140000C014014000020C4
:102A2000A8000020614C00083C010020A003002009
:102A300000100140100000202DE9FF41007801281E
:102A40004BD002284FD12A4D2868012841DB294864
:102A500002F01CFA2848029002A9264802F0C0FDA4
:102A600001208DF800006946244802F03AFA00205F
:102A7000286002224FF4FA512148FEF7B0FC214FA2
:102A800040213846FEF761FA80213846FEF75DFAAC
:102A90001D4E01213046FEF758FA1C4C01212046FC
:102AA000FEF755FA02212046FEF751FA042130467E
:102AB000FEF74BFA641521463846FEF746FA2146E2
:102AC0003046FEF742FA21463046FEF730FA00283B
:102AD000F5D12868401C286005E002224FF44871B7
:102AE0000748FEF77CFC002004B0BDE8F081000040
:102AF00014000020A8000020614C0008EC00002019
:102B00003C01002000100140000C01400008014081
:102B10001CB500780F49012805D0022818D1086893
:102B2000401C086014E00020086002F017FD02223B
:102B30004FF4FA510848FEF752FC084802F0A6F993
:102B4000074800906946054802F04AFDFDF7E4FF9A
:102B500000201CBD140000203C010020A800002023
:102B6000FD3300087CB5017800262F4C4FF4FA5550
:102B7000052925D012DC012917D0022952D120685D
:102B8000401C20600A284DDB284802F07FF92848C5
:102B900000906946254802F023FD3EE00D293CD017
:102BA00018293FD102F0DAFC3CE0022229462148F4
:102BB0002660FEF714FCFDF7AFFFFEF7BFFF31E024
:102BC0004068102801D012282CD1184802F05EF974
:102BD000194800906946154802F002FD01224FF4A1
:102BE000487114482660FEF7FAFB02F0E7FC401C2F
:102BF000A22809D10D4802F049F910480090694611
:102C00000A4802F0EDFC0DE0A12800D0A02002F05F
:102C1000DBFC0B4801F0FCFF04E0022229460548DA
:102C2000FEF7DDFB00207CBD14000020A800002082
:102C3000152900083C010020412D0008452C000802
:102C4000A00300202DE9FC470078DFF8D48000269F
:102C5000344F354C4FF4FA554FF44879102843D08F
:102C600017DC01281CD0022829D00A2854D10222BE
:102C700029462E48FEF7B3FB2660FF2108467E60FA
:102C800001F084FFA02002F09FFC294801F0C0FF62
:102C900040E0112839D018283ED102F05FFC3BE01B
:102CA0000A2229462148FEF79AFB04214046FEF7F6
:102CB0004EF9FEF743FF484602F044FC2CE0206842
:102CC000401C20600A2827DB1A4802F0DFF81A4867
:102CD00000906946174802F083FC022229462660CC
:102CE0001248FEF77CFB17E004214046FEF72DF961
:102CF000104802F0CBF81148009069460D4802F0E8
:102D00006FFC012249462660EAE77868401C78603B
:102D10000328D9DAFDF7C0FE0020BDE8FC870000DB
:102D2000000C014034000020140000203C01002071
:102D3000A0030020A8000020ED2D0008412D000870
:102D40007CB50078254C4FF4FA5501281AD002289A
:102D500004D0182840D102F001FC04E02068401C97
:102D600020600A2838DB1E4802F090F81D480090C9
:102D700069461B4802F034FC022229461A48FEF735
:102D80002EFB29E002F01AFCA02817D1122002F035
:102D9000E9FD132002F0E6FD142002F0E3FD172008
:102DA00002F0E0FD02F076F9284602F0CBFB02F0DB
:102DB00071F94FF4487002F095F906E0A12802D1AC
:102DC00002F068F901E0FEF779FE02222946064882
:102DD000FEF705FB0020206000207CBD14000020D1
:102DE000A8000020392A00083C0100202DE9FC4100
:102DF00000780025274C284F4FF44878012814D03C
:102E0000264E02282AD0182835D102F0A7FB01212E
:102E10003846FEF793F8224A012178B31746104648
:102E2000FEF793F8022138462AE002224FF4FA51C5
:102E30001C48FEF7D4FA042138462560FEF785F8D1
:102E400002F08CFB122002F08DFD182002F08AFDAA
:102E5000FEF734FE404602F077F90CE02068401C93
:102E600020600A2807DD104802F010F869460E4875
:102E7000009602F0B5FB0020BDE8FC81FFE710469C
:102E8000FEF765F80122414606482560FEF7A7FADD
:102E9000E9E7000014000020000C0140152900089B
:102EA000000801403C010020A80000207CB500780B
:102EB000294C4FF448750F282BD00ADC27490128EC
:102EC0001ED002281AD10868401C08600A2815DBA9
:102ED00034E0112827D0182810D102F03FFB01223E
:102EE0004FF4C8611E48FEF77AFA1E4801F0CEFF83
:102EF0001D48009069461B4802F072FB00207CBD13
:102F00000020086002224FF4FA511548FEF767FAD4
:102F10000FE0012229461248FEF761FA114801F03C
:102F2000B5FF1248E5E712494868401C486003288D
:102F300004DA02210020FDF729FEDFE7094801F04D
:102F4000A5FF69460748009402F04AFB0122294682
:102F50000348FEF744FAD1E7ED2D000814000020E5
:102F60003C010020A8000020614C0008752F0008DB
:102F7000340000202DE9FC4100783A4E00244FF443
:102F80004877102856D028DC374D4FF4FA510128E5
:102F90004AD0022835D00A2861D1022233482C6059
:102FA000FEF71DFA324C2068C0B2FDF779FD2068AB
:102FB000FF21C0B201F0EAFD2E4801F029FE02F027
:102FC000CDFAFEF7BBFD1F2002F0CCFC192002F069
:102FD000C9FC384602F086F841E0112816D01828BE
:102FE0003DD102F0BBFA01212348FDF7A7FF234A98
:102FF000012180B314461046FDF7A7FF02212046A9
:103000002BE02868401C28600A2828DB1C4801F0B7
:103010003DFF69461A48009602F0E2FA012239465D
:103020001248FEF7DCF91AE00A221048FEF7D7F939
:103030002C6014E0012239460C48FEF7D0F9114803
:1030400004600F4801F022FF0F48009069460C48C9
:1030500002F0C6FA03E0FFE71046FDF778FF002014
:10306000BDE8FC81ED2D0008140000203C0100208B
:1030700000000020A0030020000C014000080140D7
:10308000A8000020180000208D3000082DE9FC4128
:1030900000782E4C00252E4E012820D02D4F0228DE
:1030A0000FD018284ED101212B48FDF747FF2B4A9E
:1030B000012128B390461046FDF747FF0221404604
:1030C0001FE02068401C20600A283BDB244801F0F8
:1030D000DDFE69462248009702F082FA32E00222C1
:1030E0004FF4FA511F48FEF77AF92560356001F078
:1030F000D1FF122002F036FC172002F033FC21E051
:103100001046FDF724FF3068401C30604FF44876CD
:10311000012807D102F022FAFEF7F4FC304601F054
:10312000E1FF0FE002280DD10D4801F0AFFE694626
:103130000B48009702F054FA0122314609482560F5
:10314000FEF74DF90020BDE8FC81000014000020CE
:103150001800002015290008000C0140000801405B
:10316000A80000203C0100201CB50078214A002462
:103170004FF4FA5101281CD0022816D00D2832D065
:10318000182810D102F0EAF901224FF448711A48C8
:10319000FEF725F9194801F079FE194800906946B3
:1031A000164802F01DFA00201CBD1068401C10607B
:1031B000F9E7146002221048FEF711F9FDF7ACFCA4
:1031C000FEF7BCFC1F2002F0CDFB252002F0CAFB5D
:1031D000142002F0C7FB232002F0C4FBFEF7AEFC74
:1031E00008480460DFE7146002220348FEF7F7F89E
:1031F000D9E70000140000203C010020A8000020B6
:10320000AD2E0008180000207CB500781D4D4FF44D
:10321000487601280CD01C4C022823D018282ED127
:1032200002F09CF9012231461848FEF7D8F81EE05A
:1032300002224FF4FA511548FEF7D1F80020286019
:1032400004211348FDF781FE02F088F9102002F0F6
:1032500089FB182002F086FBFEF730FC304601F0B7
:1032600073FF0CE02868401C28600A2807DD094825
:1032700001F00CFE69460748009402F0B1F9002005
:103280007CBD000014000020152900083C0100202E
:10329000000C0140A80000202DE9FC410078002529
:1032A0002A4C2B4F4FF44878012814D0294E02287D
:1032B0002AD0182847D102F051F901213846FDF7EC
:1032C0003DFE254A012168B317461046FDF73DFE35
:1032D0000221384627E002224FF4FA511F48FEF738
:1032E0007EF8042138462560FDF72FFE02F036F9FE
:1032F000102002F037FB172002F034FBFEF702FC2F
:10330000404601F0EFFE1EE02068401C20600A28C5
:1033100019DB134801F0BAFD69461148009602F026
:103320005FF90BE01046FDF712FE0D4801F0AEFD0F
:1033300069460B48009602F053F925600122414688
:103340000648FEF74CF80020BDE8FC811400002080
:10335000000C014015290008000801403C01002034
:10336000A80000207CB500780026204C012817D04A
:103370001F4D02282CD0182810D102F0EFF81D485C
:1033800001F084FD69461B48009502F029F90122ED
:103390004FF4487118482660FEF721F800207CBDE4
:1033A00002224FF4FA5114482660FEF718F802F092
:1033B000D5F801F06FFE4FF47A64204602F0C2F8AF
:1033C00001F068FE204602F0BDF801F063FEE5E77B
:1033D0002068401C20600A28E0DB064801F056FD0A
:1033E00069460448009502F0FBF8D7E71400002076
:1033F00015290008A80000203C0100207CB50078B9
:1034000000241A4D4FF44876022806D00D281CD00F
:10341000182829D102F0A2F826E02868401C28606C
:10342000032802DAFDF778FB1EE0114801F02EFDBB
:103430001048009069460E4802F0D2F80122314649
:103440000D482C60FDF7CBFF0EE0012231460A4803
:103450002C60FDF7C4FF064801F018FD07480090F6
:103460006946034802F0BCF800207CBD140000202F
:10347000A8000020653300083C0100200935000841
:103480002DE9FC4100781C4C0025012827D01B4E5B
:103490004FF4487702280DD018281DD102F05EF8AD
:1034A000174801F0F3FC69461548009602F098F8B9
:1034B00025600CE02068401C20600A280CDB1048C6
:1034C00001F0E4FC69460E48009602F089F80122FA
:1034D00039460C48FDF783FF0020BDE8FC8102F06F
:1034E0003DF8FEF72BFB0D2002F03CFA02224FF4D0
:1034F000FA512560EDE700001400002015290008AE
:10350000A80000203C0100202DE9FC470646007879
:103510000024564FDFF85881DFF858A1564D4FF47C
:10352000FA514FF4487905285FD013DC01281AD0EE
:10353000022823D004280CD101215046FDF707FDB5
:103540004E4C01212046FDF700FD02212046FDF7EB
:10355000FEFC87E00F2826D0112833D0182801D18F
:1035600001F0FCFF7EE0022245482C60FDF737FFAA
:1035700075210020FDF70AFB7C6073E02868401C81
:1035800028600A286EDD012249463D482C60FDF77F
:1035900026FF3C4801F07AFC4046009069463948D5
:1035A00002F01EF85EE004215046FDF7CEFC012239
:1035B000494633482C60FDF712FF324801F066FCA3
:1035C0003148EAE702222E48FDF709FF7868401CDF
:1035D0007860032804DA75210020FDF7D7FA41E06E
:1035E00004215046FDF7B1FCCDE77068132839D2AD
:1035F000DFE800F0381E1E1E1E1E1E1E1E1E1E1E92
:103600001E3838380A380A0004215046FDF79DFC60
:103610001C4801F03BFC1D4800906946194801F028
:10362000DFFF0122494616482C60FDF7D8FE19E05D
:103630001748007BA02804D001F090FFFEF77EFA27
:1036400010E004215046FDF780FC0E4801F01EFCFE
:103650001048009069460B4801F0C2FF31460E4801
:1036600001F03FFC0020BDE8FC8700003400002092
:103670009D360008000C01401400002000080140A5
:103680003C010020A80000205D370008412100080F
:10369000A0030020693E0008EC0000207CB5007803
:1036A000284D4FF4487601280CD0274C022839D0F9
:1036B000182844D101F052FF012231462348FDF77A
:1036C0008EFE34E002224FF4FA512048FDF787FEC7
:1036D00000201F4C286004212046FDF736FC012104
:1036E0002046FDF732FC01212046FDF727FC194A50
:1036F000012130B114461046FDF727FC0221204677
:1037000000E01046FDF723FC01F028FFFEF7D6F994
:103710001F2002F027F9182002F024F9304601F0AA
:1037200013FD0CE02868401C28600A2807DD0A48C1
:1037300001F0ACFB69460848009401F051FF0020FD
:103740007CBD000014000020152900083C01002069
:10375000000C014000080140A80000202DE9FC41B8
:10376000007800252E4C4FF44877012816D02D4EB6
:10377000022836D0162849D0182844D101F0EEFE90
:1037800001212948FDF7DAFB284A0121B8B3144684
:103790001046FDF7DAFB0221204632E002224FF408
:1037A000FA5123482560FDF71AFE01F0D7FEFEF717
:1037B000C5F91F2002F0D6F8192002F0D3F8212015
:1037C00002F0D0F8384601F08DFC01F0EFFC01F07A
:1037D00057FBC0B1002001F0FDFE164801F018FAB9
:1037E00011E02068401C20600A280CDD124801F01E
:1037F0004DFB69461048009601F0F2FE03E0FFE73A
:103800001046FDF7A4FB0020BDE8FC81FEF7ACF8F4
:103810000122394606482560FDF7E1FDE6E7000094
:103820001400002015290008000C01400008014088
:103830003C010020A0030020A80000202DE9FF414A
:10384000044602A801F0D8FD20788DF808006068D1
:1038500003909DF8080000252D4C4FF4487701286F
:103860000DD002284CD02B4E05281CD018284AD148
:1038700001F074FE284801F009FB009628E001F0F1
:10388000FFFA062804D3244801F000FB23481EE079
:10389000384601F057FE222002F064F802224FF46D
:1038A000FA5125601BE001F059FE039811282AD235
:1038B000DFE800F029191919191919191919191915
:1038C000192929290900144801F0E0FA1448009048
:1038D0006946114801F084FE0122394625601148ED
:1038E000FDF77DFD0FE00C4801F0D0FA69460A486B
:1038F000009601F075FE02A90B4801F0F2FA02E011
:103900002068401C2060002004B0BDE8F081000069
:1039100014000020693E0008A8000020B13D000806
:10392000412100083C010020EC0000202DE9FF416E
:10393000044602A801F060FD20788DF80800606858
:1039400003909DF808000024344F354E354D4FF458
:1039500048780F2831D009DC01280ED0022858D130
:103960002868401C28600A2853DB44E0112836D020
:1039700018284ED101F0F2FD38E02C604FF4FA54D3
:10398000022221462848FDF72AFD04213846FDF78A
:10399000DEFAFEF7D3F81F2001F0E4FF252001F046
:1039A000E1FF142001F0DEFF232001F0DBFFFEF732
:1039B000C5F8204601F0C6FD2BE004213846FDF78E
:1039C000C4FA0122414618482C60FDF708FD17484B
:1039D00001F05CFA1649154801F002FE19E014499D
:1039E00014394868401C4860032804DA002108465E
:1039F000FDF7CCF80DE00D4801F048FA69460B4898
:103A0000009601F0EDFD0122414607482C60FDF7CC
:103A1000E6FC002004B0BDE8F0810000000C01408D
:103A200075440008140000203C010020A80000207C
:103A3000500000207FB5044602A801F0DDFC20788C
:103A40008DF80800606803909DF808000025234C5D
:103A50004FF44876012817D002283BD0182810D1FF
:103A600001F07CFD1E4801F011FA1E4800906946E5
:103A70001B4801F0B5FD012231461B482560FDF7CA
:103A8000AEFC002004B070BD02224FF4FA5116487B
:103A90002560FDF7A4FC01F045FD144801F0B8F8DD
:103AA00001F05CFDFEF72EF81F2001F05BFF1920EE
:103AB00001F058FF4FF4166001F044FD122001F0B0
:103AC00051FF172001F04EFFFEF71CF8304601F0C1
:103AD00009FBD6E72068401C2060D2E714000020D4
:103AE000A8000020152900083C010020A0030020A8
:103AF0002DE9FF41044602A801F07EFC20788DF8F4
:103B00000800606803909DF808000024594D4FF4A8
:103B1000FA564FF44878012816D0574F022830D073
:103B2000052834D0182827D101F018FD0121534869
:103B3000FDF704FA524A0121F8B114461046FDF788
:103B400004FA0221204619E0022231464D482C6039
:103B5000FDF745FC01F002FDFDF7D4FF1F2001F049
:103B600001FF192001F0FEFE222001F0FBFE01F012
:103B700091FA404601F0B6FA77E01046FDF7E7F912
:103B800073E02868401C28601E286EDB0DE0039857
:103B900011286AD2DFE800F06918181818181818E8
:103BA00018181818186969690900374801F06EF982
:103BB00069463548009701F013FD0122414631481E
:103BC0002C60FDF70CFC50E0314F0246B9682F4BDA
:103BD000481C5A54B86010283DDB2B4801F056F9B8
:103BE0002C4800906946284801F0FAFC0222314630
:103BF00024482C60FDF7F3FB01F0CEFC012817D020
:103C0000224801F0BBFC98B1204801F067FC78B174
:103C100001F0A4FCFDF792FF102001F0A3FE172095
:103C200001F0A0FEFDF76EFF404601F05BFA0EE0EA
:103C300001F094FCFDF782FF102001F093FE1820A4
:103C400001F090FEFDF73AFF404601F07DFA124880
:103C500000F0DEFF09E0082805D1FDF76FFF1E2008
:103C600001F080FE01E0FDF769FF002004B0BDE82F
:103C7000F08100001400002015290008000C01400C
:103C8000000801403C010020A8000020E0070020BF
:103C90003C0000209D3C0008A00300201FB5044606
:103CA00002A801F0A9FB20788DF808006068039055
:103CB0009DF80800104C022802D0182818D104E002
:103CC0002068401C20600A2812DB01F047FC0B48EA
:103CD00001F0DCF80A4800906946084801F080FCD1
:103CE0000020206001224FF448710648FDF777FB61
:103CF000002004B010BD000014000020A800002027
:103D0000152900083C0100207CB50078224C4FF4B6
:103D1000487605282DD017DC204D01281BD002281D
:103D200038D12868401C28600A2833DB1C4801F081
:103D3000ADF869461A48009401F052FC0122314660
:103D40001848FDF74CFB25E016280FD0182821D184
:103D500001F004FC1EE001F029FA0D2001F002FE42
:103D6000002002224FF4FA512860E9E7FDF7FCFD3C
:103D7000DCE701210C48FDF7EAF80C4C0121204654
:103D8000FDF7E3F802212046FDF7E1F801F0E6FB3C
:103D9000FDF7D4FE00207CBD15290008140000208A
:103DA000A80000203C010020000C01400008014058
:103DB0002DE9FC4100780025254C4FF44876012878
:103DC00004D0022819D018283ED11BE002224FF45B
:103DD000FA5120482560FDF702FB01F0BFFBFDF71B
:103DE000ADFE152001F0BEFD1C2001F0BBFDFDF76E
:103DF00065FE304601F0A8F926E02068401C2060EE
:103E00000A2821DB01F0AAFB01211348FDF796F8EF
:103E1000124A012130B117461046FDF796F80221EB
:103E2000384600E01046FDF792F80D4801F02EF8F4
:103E30000C48009069460A4801F0D2FB0122314645
:103E400004482560FDF7CBFA0020BDE8FC810000A6
:103E5000140000203C010020000C0140000801403B
:103E6000A8000020152900082DE9FC410178002553
:103E7000404E414F446801290AD04FF44878022946
:103E80000FD0052922D0182970D101F067FB6DE011
:103E900002224FF4FA5139483560FDF7A0FAFD606F
:103EA00064E03068401C30600A285FDD00F0E8FF05
:103EB00001463878814204D001F08CFB304800F094
:103EC000A7FE304800F0E2FF2F4841E001F046FB3A
:103ED000132C4BD2DFE804F04A14141414141414F5
:103EE00014141414144A4A4A0A4A0A00254800F0D5
:103EF000CDFF264800906946224801F071FB2DE075
:103F0000F868234A411C1454F96008292CDB104638
:103F100001F0C2FA01281B4817D100F0B7FF1D4875
:103F200000906946174801F05BFB012241461348A7
:103F3000FDF755FA3D7000F0A3FF28B1002001F015
:103F400049FB0F4800F064FE10E000F09FFF1248AC
:103F5000009069460B4801F043FB35600122414661
:103F60000648FDF73CFA01E0FDF7E8FD0020BDE85A
:103F7000FC810000140000203C0000203C010020D7
:103F8000A0030020A800002075440008412100087B
:103F9000F2070020B5430008D54000087CB5007842
:103FA0000025164C4FF44876012804D002280DD085
:103FB000182821D10FE002224FF4FA511048256051
:103FC000FDF70DFA304601F0BDFA15E02068401CFF
:103FD00020600A2810DB01F0C1FA0A4800F056FF01
:103FE000094800906946074801F0FAFA0122314673
:103FF00003482560FDF7F3F900207CBD1400002084
:104000003C010020A8000020152900082DE9FF41EF
:1040100000780024274E4FF4FA55012809D00228D1
:1040200015D0182801D101F099FA002004B0BDE89C
:10403000F0810222294620483460FDF7D0F91A2089
:104040008DF8000069461D4800F04BFFEDE7306831
:104050001B4F401C30600A280ADD02A9194802974C
:1040600001F0BEFA01224FF448711348FDF7B7F989
:1040700015480068C005D8D514480068FCF76CFAEC
:10408000134800F0C5FD0F4800F000FF02A90D48DD
:10409000029701F0A5FA0222294607483460FDF78D
:1040A0009EF900F0F7FF284601F04CFAFDF72AFDD3
:1040B000BBE70000140000203C010020EC000020C1
:1040C00015290008A8000020100000200C00002086
:1040D000A00300202DE9FC41007800243B4D4FF463
:1040E0004876012813D0022828D018286AD101F078
:1040F00035FA01213648FCF721FF364A012138B351
:1041000017461046FCF721FF0221384621E0022223
:104110004FF4FA5130482C60FDF761F901F01EFAB6
:10412000FDF70CFD1F2001F01DFC182001F01AFC0A
:10413000FDF7C4FC304601F007F843E02868401C56
:1041400028600A283EDB254800F0A0FE244821E034
:104150001046FCF7FCFE234F787828B900F090FE5B
:10416000787000F08DFE38703878401CC0B238701E
:104170007870062814D300F083FE01463878814217
:1041800004D001F027FA184800F042FD134800F06F
:104190007DFE164800906946104801F021FA0BE0B8
:1041A0000E4800F073FE1248009069460B4801F07B
:1041B00017FA222001F0D6FB0122314606482C6076
:1041C000FDF70DF90020BDE8FC810000140000207F
:1041D000000C0140000801403C010020A800002024
:1041E000754400083C000020A003002015290008A9
:1041F000693E00082DE9FC41007800253B4E3C4C0F
:104200004FF448770D284AD01DDC012824D03849C6
:104210000968491C02285AD008281AD121600229AD
:104220000EDD344800F032FE3348009069463148D4
:1042300001F0D6F90122394630482560FDF7CFF864
:10424000FCF76AFC05E0102832D0182801D101F0F3
:1042500085F90020BDE8FC8101F080F9FDF76EFCD6
:104260004FF4FA5001F06EF908224FF47A512348C6
:104270002560FDF7B4F801F055F9214800F0C8FCBD
:10428000FF21084600F082FCA02001F09DF91C48A7
:1042900000F0BEFC04213046FCF759FED9E70222AB
:1042A000394616482560FDF79AF8FCF7F5FBD0E78C
:1042B00004213046FCF749FE0E4800F0E7FD1148A6
:1042C000009069460B4801F08BF9256008E02160F9
:1042D0000A29BEDD0C4800906946064801F080F9C5
:1042E000012239460548FDF77AF8B2E7000C014093
:1042F00014000020A8000020653300083C010020C5
:10430000A00300200D430008152900087CB50078A3
:10431000224D4FF44874012813D0022827D01828C2
:1043200039D101F01BF901211D48FCF707FE1D4A98
:10433000012168B314461046FCF707FE022120460F
:1043400027E001F00BF91D2001F00CFB00F0A2FEAC
:104350004FF4FA56304601F0F5F800F09BFE204687
:1043600000F0C0FE00200222314628600CE02868E0
:10437000401C28600A280EDD0B48009069460B4857
:1043800001F02EF9012221460948FDF728F802E044
:104390001046FCF7DCFD00207CBD0000140000206E
:1043A000000C01400008014015290008A800002069
:1043B0003C0100201CB500784FF44874012813D04C
:1043C000162833D0182846D101F0C8F80121234817
:1043D000FCF7B4FD224A0121C8B314461046FCF78D
:1043E000B4FD0221204634E002224FF4FA511D4868
:1043F000FCF7F5FF01F0B2F8FDF7A0FB1F2001F07C
:10440000B1FA192001F0AEFA212001F0ABFA2046F2
:1044100000F068FE00F0CAFE00F032FDD8B10020C6
:1044200001F0D8F8104800F0F3FB14E0FDF79CFA17
:104430000E4800F02BFD0E48009069460B4801F035
:10444000CFF8012221460748FCF7C9FF03E0FFE748
:104450001046FCF77CFD00201CBD0000000C014054
:10446000000801403C010020A0030020A80000201B
:104470009D3F00082DE9FC4100780025254C4FF4B4
:104480004876012804D0022819D018283ED11BE014
:1044900002224FF4FA5120482560FCF7A0FF01F0FA
:1044A0005DF8FDF74BFB1F2001F05CFA182001F0CE
:1044B00059FAFDF703FB304600F046FE26E020687F
:1044C000401C20600A2821DB01F048F80121134834
:1044D000FCF734FD124A012130B117461046FCF7B3
:1044E00034FD0221384600E01046FCF730FD0D484F
:1044F00000F0CCFC0C48009069460A4801F070F8C6
:104500000122314604482560FCF769FF0020BDE820
:10451000FC810000140000203C010020000C014040
:1045200000080140A8000020152900082DE9FC41E1
:10453000007800241B4D012821D01B4E4FF44877F2
:10454000022808D016282AD0182825D101F006F80C
:1045500000F02CFE20E02868401C28600A281BDDA3
:10456000124800F093FC69461048009601F038F8B4
:10457000012239460E482C60FCF731FF0CE0022284
:104580004FF4FA510A482C60FCF729FFFDF7D6FAE0
:104590004FF4C86000F0D6FF0020BDE8FC81FDF7B5
:1045A000E3F9DDE71400002015290008A800002029
:1045B0003C0100202DE9F04107463C4888B01EC868
:1045C00001AE86E81E0038780024394D01280BD052
:1045D0004FF44878022850D0052819D0182860D107
:1045E0002C6000F0BBFF5CE000F0B8FF00F052FD73
:1045F0004FF47A66304600F0A5FF00F04BFD3046E0
:1046000000F0A0FF00F046FD022271002C6045E0A2
:1046100000F0A4FF78680C2843D2DFE800F04217CE
:10462000062B211C2B2B2B262B2B0024305D401C12
:10463000C0B201F097F9305D8DF8140005A91D484E
:10464000FDF7ADFA641C0C2CF0DB2AE01A4800F0F0
:104650001DFC1A481AE0184800F018FC184815E02C
:10466000154800F013FC174810E0134800F00EFC4A
:1046700015480BE0FDF762FA13E02868401C28603B
:104680003C280EDB0C4800F001FC1048069006A9FF
:10469000094800F0A5FF012241462C600C48FCF7B8
:1046A0009EFE002008B0BDE8F0810000C45900085B
:1046B0001400002060010020A8000020D54600085A
:1046C00011480008414A00082D4900081529000832
:1046D0003C010020FEB5064600780024474D4FF40B
:1046E0004877012809D0022871D005280FD0182852
:1046F00002D12C6000F032FF7DE0FDF71FFA384652
:1047000000F020FF02224FF4FA512C6070E000F01C
:1047100025FFFDF713FA706813286CD2DFE800F06C
:104720006B19144B231E4641322D373C286B6B6BA3
:104730000F6B0A00202001F015F920203FE000F067
:104740000DFF00F0A7FC56E0022001F00BF902205B
:1047500035E0032001F006F9032030E0042001F0E9
:1047600001F904202BE0052001F0FCF8052026E0EB
:10477000062001F0F7F8062021E0072001F0F2F80A
:1047800007201CE0082001F0EDF8082017E00920C0
:1047900001F0E8F8092012E00A2001F0E3F80A200D
:1047A0000DE00B2001F0DEF80B2008E0012001F005
:1047B000D9F8012003E00C2001F0D4F80C208DF88A
:1047C000000069460E48FDF7EAF914E0FFE72868A3
:1047D000401C28600A280EDB0A4800F057FB0A48F4
:1047E000019001A9074800F0FBFE012239462C6028
:1047F0000648FCF7F4FD0020FEBD00001400002078
:1048000060010020A8000020B54500083C01002000
:104810002DE9FE430746007800253D4E4FF44874CD
:10482000012814D002285CD03A4C4FF47A6805284D
:104830001AD0182869D1356000F090FE6068002811
:104840000DDD401E6060404600F036FC5DE0204615
:1048500000F048FC02224FF4FA51356052E0012189
:104860002D48FCF774FB50E000F078FE78681328C0
:104870004BD2DFE800F04A1C1A30201E2E2C2624D2
:10488000282A224A4A4A154A0A00202001F06AF8DA
:1048900020208DF8000069462048FDF780F934E0BB
:1048A00000F05CFE00F0F6FB2FE0012014E0022097
:1048B00012E0032010E004200EE005200CE00620AA
:1048C0000AE0072008E0082006E0092004E00B20A9
:1048D00002E00A2000E00C206060404600F032FE5A
:1048E00013E03068401C30600A280EDB0C4800F0F2
:1048F000CDFA0C48019001A9094800F071FE01228F
:10490000214635600848FCF76AFD0020BDE8FE83BB
:104910001400002078000020000801406001002001
:10492000A8000020B54500083C0100202DE9FC4707
:104930000646007800243C4D4FF4487801280AD000
:104940003A4F022837D0052815D0182869D100F031
:1049500005FE2C6065E000F001FEFDF7EFF846462D
:10496000404600F0F1FB304600F0BCFB02224FF461
:10497000FA512C6052E000F0F1FDFDF7DFF87068AD
:1049800013284ED2DFE800F04D0A0A0A0A0A0A0A82
:104990000A0A0A0A0A4D4D4D0A0A0A00244800F084
:1049A00075FA69462248009700F01AFE02224FF479
:1049B0007A612C6032E02868DFF87890401C28602B
:1049C000C0071D4E4FF00101484607D0FCF7BFFA63
:1049D00001213046FCF7B9FA022102E0FCF7B5FAF2
:1049E00001213046FCF7B3FA28680A2819DB104881
:1049F00000F04CFA69460E48009700F0F1FD0121E5
:104A00004846FCF7A4FA01213046FCF79EFA022141
:104A10003046FCF79CFA012241462C600748FCF71F
:104A2000DEFC0020BDE8FC8714000020B54500082E
:104A3000A8000020000C0140000801403C010020BB
:104A40002DE9FC5F804600780024344E344D4FF051
:104A500001094FF4FA5A01281AD0324F4FF4487B1B
:104A6000022844D005281FD0182853D100F076FD25
:104A70002C603078401CC0B2307027283CD8401CD5
:104A8000C0B200F06FFF4FF47A6000F05BFD41E0D0
:104A900000F064FDFDF752F83470484600F062FF04
:104AA000022251462C6032E000F058FDFDF746F836
:104AB000D8F8040013282DD2DFE800F02C0A0A0AE7
:104AC0000A0A0A1E0A0A0A0A0A2C2C2C0A0A0A00D6
:104AD000307826281ED900F041FDFDF72FF850460A
:104AE00000F030FD3470484600F03CFF12E02868CA
:104AF000401C28600A280DDB0B4800F0C7F9694606
:104B00000948009700F06CFD012259462C600748C7
:104B1000FCF765FC0020BDE8FC9F00007800002049
:104B200014000020B5450008A80000203C0100202A
:104B30001CB54FF480710C48FCF7F9F90B4C0128B7
:104B400020680DD1400606D407208DF80000694684
:104B5000074800F0C6F9206840F0400020601CBD06
:104B600020F04000FAE7000000080140100000209B
:104B7000EC00002004490246114491F88210012003
:104B8000A52900D100207047A003002010B5002205
:104B9000752308B9012207E0012802D11522452317
:104BA00002E0022800D14622044803E0841884F879
:104BB0008210521C9A42F9DD10BD0000A0030020B3
:104BC00010B5042206490748FBF7EEFA20B905485C
:104BD00090F88200FF2801D1012010BD002010BDF7
:104BE000B0590008A0030020024A104480F8821047
:104BF00070470000A00300200020044AFF214FF46A
:104C000080631154401C9842FBDB7047A0030020D6
:104C10002DE9F0410546FBF799FE3520FBF718FE1C
:104C20000D4C2046FBF71AFE042803D04FF0FF304E
:104C3000BDE8F081084E094F7642A01920F003002C
:104C400029582046FBF754FE241DBC42F5D3FBF740
:104C50003BFE0020ECE7000000FC01080000020819
:104C60002DE9FE4F0178DFF8DCA1DFF8DC81774D1C
:104C7000774F00244FF4FA594FF400764FF4487BF5
:104C8000052974D026DC01295ED0DFF8C8910229FD
:104C900029D0042926D131463846FCF758F901219C
:104CA0003846FCF754F901214846FCF74EF9022139
:104CB0004846FCF74CF90122594667482C60FCF73E
:104CC0008EFBFFF77DFF002852D0644800F0DEF82D
:104CD000404688E0072954D0122939D01629D9D165
:104CE000FCF742FEA4E02868401C28600A2823DB69
:104CF00031465046FCF729F901213846FCF725F9E1
:104D000004213846FCF721F901214C464846FCF7BE
:104D10001EF902212046FCF71AF931463846FCF705
:104D200014F931463846FCF702F90028F5D1022281
:104D300059464948FCF753FB28688DF8000069463E
:104D40004748FCF72CFF73E0022249462C606CE0D8
:104D500031463846FCF7FBF8404800F097F84148E8
:104D6000019001A93D4800F03BFC2C605BE022E093
:104D70003D48007BA02804D0384800F087F83B4825
:104D800031E00122594634482C60FCF728FBFFF73C
:104D900017FF00283146384602D0FCF7D8F894E7D0
:104DA000FCF7D5F804213846FCF7D1F82B4800F081
:104DB0006DF82F4817E04068DFF8B880102818D049
:104DC000112826D0122833D131463846FCF7BFF8D7
:104DD000012259462048FCF702FB2048C8F8004051
:104DE00000F054F82448019001A91C4800F0F8FB99
:104DF0001EE031463846FCF7AAF80122594616480B
:104E0000FCF7EDFA1548C8F8004000F03FF81B48E1
:104E1000E9E7FFF7D5FE0028314638460BD0FCF70E
:104E200096F800F0C3F9012259460B48FCF7D7FA6F
:104E30000020BDE8FE8FFCF78AF831465046FCF7AB
:104E400086F881E700100140093D000814000020A9
:104E5000000C0140000801403C010020A800002097
:104E6000600100202D450008A00300203D38000807
:104E7000112B0008180000200D1C0008412100081B
:104E80000148007C70470000A00300200021016061
:104E90007047002101604160704730B5D0E90043A0
:104EA0005A1CA24207D0D51702EB557525F007050D
:104EB000521BA24201D1002030BD0A7800EBC3038F
:104EC0001A744268496800EBC20251614168491C8A
:104ED000CA1701EB527222F00702891A41600120C1
:104EE00030BD70B504460D46FCF738F8294620461B
:104EF000FFF7D3FF0446FCF741F8204670BD0000E1
:104F00002DE9FC475C4C5D4F2068DFF874915D4DE6
:104F10004FF4207800064FF0050610D420214846B3
:104F2000FCF705F80128206803D1400428D40420A8
:104F300020E0410424D540F08000206020E0787813
:104F4000397888421CD05049BA78FF28895C019191
:104F50000ED02868404513D18DF8006069464B4853
:104F6000FFF7BFFF4FF4487028607878387007E08B
:104F7000387006208DF8000069464448FFF7B1FFFD
:104F80002021CA464846FBF7D2FF002101282068AD
:104F9000DFF8FC904FF4F0724FEA404311D1002B40
:104FA0000CDA286890421AD14846C5F80080FBF711
:104FB000BBFF00F00F007870B87010E040F4804044
:104FC0000BE0002B07DB2868904208D1FF20C5F8D2
:104FD0000080787003E020F4804020602960202168
:104FE0004D464846FBF7A3FF012820683AD1C0068A
:104FF00007D4102001908DF8006069462348FFF720
:1050000070FF206840F0100020604FF48061284657
:10501000FBF78DFF0128206827D1800607D41120D7
:1050200001908DF8006069461848FFF75AFF206824
:1050300040F02000206080215046FBF778FF0128D7
:10504000206815D1C00407D4122001908DF80060AB
:1050500069460E48FFF745FF206840F48050206005
:10506000BDE8FC8720F01000CEE720F02000E1E74B
:1050700020F48050F3E700001000002024000020FE
:105080000008014098000020B4590008EC000020FE
:10509000001001401CB5F9208DF804000448009070
:1050A0000F208DF8050069460248FCF76DFC1CBD19
:1050B000803801000C0300201CB50446FD208DF84B
:1050C0000400694606480094FCF75EFCFC208DF85D
:1050D0000400694602480094FCF756FC1CBD000021
:1050E0000C0300207CB50446FD2600908DF804607A
:1050F00069461448FCF748FCFC258DF804506946C5
:1051000010480094FCF740FC8DF8046069460D4897
:105110000094FCF739FC8DF8045069460948009466
:10512000FCF732FC8DF80460694606480094FCF7F1
:105130002BFC8DF80450694602480094FCF724FCCF
:105140007CBD00000C0300207CB50446FB260090CB
:105150008DF8046069461448FCF716FCFA258DF8B2
:105160000450694610480094FCF70EFC8DF804606A
:1051700069460D480094FCF707FC8DF80450694619
:1051800009480094FCF700FC8DF804606946064865
:105190000094FCF7F9FB8DF804506946024800942E
:1051A000FCF7F2FB7CBD00000C0300201CB5FF20C7
:1051B0008DF804004FF47A6469460B480094FCF7BC
:1051C000E3FBF7208DF8040049F640400090694663
:1051D0000548FCF7D9FBFE208DF80400694602481B
:1051E0000094FCF7D1FB1CBD780200202DE9FF479D
:1051F000FBF7B2FFFBF7F6FEFBF7ACFD724C4FF48A
:10520000007529462046FBF7A0FE29462046FBF7FD
:105210008EFE0028F5D101212046FBF796FE0421E1
:105220002046FBF792FE694C01212046FBF78FFEDA
:1052300002212046FBF78BFE10212046FBF787FE5C
:1052400040212046FBF783FE614C40212046FBF7BE
:105250007CFE80212046FBF778FE29462046FBF79E
:1052600074FEFCF7A7FAFCF795F9FBF767FAFBF772
:1052700083F8584E002575603560FFF7BDFC574C2C
:10528000042255492046FAF78FFF48B9544900BF18
:1052900054F8202041F82020401CFF28F8DD08E0C9
:1052A0004F48FFF7B5FC4FF480624B494C48FAF782
:1052B000A2FF4C48FCF781FC4A488C30FCF77DFC8F
:1052C000484916231839152201F59870FCF785FB1B
:1052D000444918230C39172201F5DC70FCF77DFBDB
:1052E0004048B838FFF7D2FD3E487438FFF7D1FD8B
:1052F0003C48DFF8F4806946B838CDF8008000F00B
:105300006FF9384F0024243F04EB440007EB800082
:10531000FBF72DF9641C032CF6DB32484FF4FA54EA
:10532000022221462438FCF756F801208DF80800A7
:105330002C4802A97438FFF7B0FDFBF71FFE00F000
:1053400025FBDFF8A890DFF8A8A0474600F01CFB7B
:10535000FFF7D6FDFFF7ECFB00F054F800F0B0FAD1
:1053600020494846FBF712F91E4950468C31FBF79D
:105370000DF92048FCF7E8FA19489438FCF7E4FAEC
:10538000184802A9743800F079F80028DED002A885
:1053900000F0E4F90128D9D012486946B83800F085
:1053A00031F968B90F486946B838009700F018F924
:1053B0000C480222214624387560FCF710F8C5E736
:1053C000009902A88847C1E7000C0140000801408D
:1053D0000010014010000020B059000800FC010836
:1053E000A003002060010020614C0008003801404B
:1053F0000044004078020020002802D00021017003
:10540000012070471CB54FF400610C48FBF78FFD7D
:105410000B4C012820680DD1000506D412208DF810
:10542000000069460748FFF75CFD206840F4006013
:1054300020601CBD20F40060FAE70000001001406D
:1054400010000020EC000020D0E90023934201D19D
:105450000020704700EBC202127C0A70026800EB69
:10546000C20252694A600168491CCA1701EB5272B4
:1054700022F00702891A01600120704770B50446C6
:105480000D46FBF76BFD29462046FFF7DDFF04467E
:10549000FBF774FD204670BD70B50F4C002200BFB5
:1054A00002EB820304EB4301897FA5290ED1002181
:1054B00001EB43052544ED7F465CB54202D1491C12
:1054C0000829F5DB082901D1012070BD521C082AEA
:1054D000E6DB002070BD0000A003002030B5104BBB
:1054E000002100BF01EB810203EB4204A47FA52C45
:1054F00010D001EB8101A52403EB41018C77002141
:1055000001EB4205445C1D44491CEC770829F7DB9C
:10551000012030BD491C0829E4DB002030BD00001B
:10552000A00300200020064AFF2100BF00EB8003FB
:1055300002EB4303401C99770828F7DB01207047F2
:10554000A00300201CB5F7218DF8041000906946D7
:105550000148FCF719FA1CBD0C03002010B51823F4
:10556000172204490448FCF738FABDE81040024805
:1055700000F0BAB8540100200C03002000214318A9
:10558000425C1B7A9A4201D000207047491C0829CE
:10559000F5DB0120704700000749002000EB800286
:1055A00001EB4202927FA52A01D000207047401CE7
:1055B0000828F3DB01207047A00300200148007A8F
:1055C00070470000A00300200149087270470000E6
:1055D000A00300200149087470470000A0030020C8
:1055E0000268072A01D300207047521C026000EBBA
:1055F000C2020B6853600268496800EBC200816018
:10560000012070470268002A01DD082A01DB002022
:10561000704700EBC20252680A60026800EBC200E9
:1056200080684860012070472DE9F04104460D462E
:10563000027B09680069FBF7D2FE29798022F539DF
:105640004023DFF89CC02748202610270B2944D28E
:10565000DFE801F0322C38433C29221F170F0600E7
:10566000A260402164466046FBF771FC8021204621
:1056700024E0A260402164466046FBF766FC80217E
:1056800005E0A36001210446FBF75FFC02212046F0
:105690000EE00121A3600BE0A66002210446FBF7A7
:1056A00054FC0121F3E70221A66001E01021A7606C
:1056B000BDE8F041FBF74BBC1021A760BDE8F0410D
:1056C000FBF743BC0820A060BDE8F0810420A06087
:1056D0006879BDE8F04100F033B90020F3E700003D
:1056E000001001400008014010B504460069FAF7B7
:1056F00042FFA168080607D5154C40212046FBF75C
:1057000024FC802120460EE012484A0601D50121E2
:1057100002E08A0604D50221BDE81040FBF717BC61
:10572000CA0604D51021BDE81040FBF70EBC0807DF
:105730000CD448070AD502210748FBF7F8FB0128DB
:1057400004D1BDE81040002000F0FAB810BD000000
:105750000010014000080140000C0140F0B5027843
:105760004B4901240025143A4A4E086885B04FF68B
:10577000FF77072A6FD2DFE802F03B048706870F26
:105780000A00454800E04548FCF7C3F87DE020F4F6
:1057900080707560086078E00F46C00575D4404899
:1057A000FAF757FE71683F4B01F00F0243F82200F1
:1057B000491C7160080768D13868102140F4807076
:1057C00038601846FCF747F90B220421354875600C
:1057D000FCF72CF9344D2860FAF7B8FE334908601D
:1057E0002968814251DA386840F4007038604CE032
:1057F00069462F48FBF766F910F0FF0F45D0684661
:10580000FBF762FAC0B2112501280AD0022808D09D
:1058100088BB6846FBF78DFA30B148F20131884207
:1058200002D08DF80C500FE06846FBF78BFA10F0B1
:10583000FF000ED003280FD004281DD0052824D146
:105840005FF010008DF80C0003A91A48FFF749FB20
:105850001BE00D20F6E717E06846FBF761FAC0B2DF
:10586000154D022804D16846FBF750FA286000E085
:105870002F600E20E6E708E06846FBF747FA0F497D
:10588000086004900F20DDE70024204605B0F0BD3D
:105890001000002024000020780200200C030020CB
:1058A00000240140A00700200C0000200800002078
:1058B00008080020EC000020040000200000002068
:1058C0007CB51A480068B0F5487F2EDB02211848E5
:1058D000FBF72DFB0024184E0028164DF06815D15B
:1058E00040F00100F060286880041ED4B068401CBD
:1058F000B060C82819DB17208DF8000069460F48F2
:10590000FFF7EFFA286840F400500CE040F0020086
:10591000F0602868810408D5B168491CB16002298B
:1059200003DB20F400502860B4607CBD90000020B0
:10593000000C01401000002024000020EC0000209A
:1059400010B50446FBF70AFB0448C4700449002064
:105950000860BDE81040FBF711BB000024000020E8
:105960008C0000201CB5F9218DF804100449009129
:105970008DF8050069460348FCF706F81CBD0000D9
:10598000803801000C030020FBF710BB10B545F276
:105990005550FBF71FFB0320FBF710FB40F25D1097
:1059A000FBF712FBFBF702FBBDE81040FBF7F6BA72
:1059B00048554152000102030405060708090A0B75
:1059C0000C0D0E0F02000105000700030102000686
:1059D00000020406080000000001020304010203A3
:1059E0000406070809000000085A0008000000200B
:1059F000A800000028010008B05A0008A8000020F4
:105A0000500A000044010008FFFF0000FFFF0000F3
:105A10000000000000000000000000000000000086
:105A2000000000000000000000000000FFFFFF0079
:105A30000000000000000000000000000000000066
:105A40000000000000000000000000000000000056
:105A50000000000000000000000000000000000046
:105A60001014160C021214160B02121314160B0C3F
:105A70001115160C031215160B0300000000000090
:105A80000000000000000000B80B00000000000053
:105A900090010000BE0000000000000000000000B7
:105AA00040060000000000000000000000000000B0
:04000005080000ED02
:00000001FF
